:020000040800F2
:1000000040260320950200085321000857190008D4
:10001000512100087F06000883230008000000002B
:100020000000000000000000000000008D2100081A
:100030008106000800000000552100088F210008FB
:10004000AF020008AF020008AF020008AF020008CC
:10005000AF020008AF020008AF020008AF020008BC
:10006000AF020008AF020008AF020008AF020008AC
:10007000AF020008AF020008AF020008AF0200089C
:10008000AF020008AF020008AF020008AF0200088C
:10009000AF020008AF020008AF020008AF0200087C
:1000A000AF020008AF020008AF020008AF0200086C
:1000B00045220008AF020008AF020008AF020008A6
:1000C000AF020008AF020008AF020008AF0200084C
:1000D000AF020008AF020008AF020008AF0200083C
:1000E000AF020008AF020008AF020008AF0200082C
:1000F000AF020008AF020008AF020008AF0200081C
:10010000AF020008AF020008AF020008AF0200080B
:10011000AF020008AF020008AF020008AF020008FB
:10012000AF020008AF020008AF020008AF020008EB
:10013000AF020008AF020008AF020008AF020008DB
:10014000AF020008AF020008AF020008AF020008CB
:10015000AF020008AF020008AF020008AF020008BB
:10016000AF020008AF020008AF020008AF020008AB
:10017000AF020008AF020008AF0200080000000054
:10018000AF020008AF020008AF020008AF0200088B
:10019000AF020008AF020008AF020008AF0200087B
:1001A000AF020008AF020008AF020008AF0200086B
:1001B000AF02000800F002F800F05CF80AA090E836
:1001C000000C82448344AAF10107DA4501D100F012
:1001D00051F8AFF2090EBAE80F0013F0010F18BF83
:1001E000FB1A43F00103184754C7070074C7070000
:1001F0000A444FF0000C10F8013B13F0070408BF4D
:1002000010F8014B1D1108BF10F8015B641E05D0EA
:1002100010F8016B641E01F8016BF9D113F0080F9F
:100220001EBF10F8014BAD1C0C1B09D16D1E58BF31
:1002300001F801CBFAD505E014F8016B01F8016B68
:100240006D1EF9D59142D6D37047000000230024DB
:1002500000250026103A28BF78C1FBD8520728BFD6
:1002600030C148BF0B6070471FB526F0B5FF1FBDFA
:1002700010B510BD00F0C9F91146FFF7F5FF20F0E9
:1002800095FD00F0E7F903B4FFF7F2FF03BC00F0BF
:10029000EFF900000948804709480047FEE7FEE7FC
:1002A000FEE7FEE7FEE7FEE7FEE7FEE7FEE7FEE726
:1002B00004480549054A064B7047000035220008EE
:1002C000B5010008402003204026032040220320DF
:1002D0004022032053EA020C00F069802DE9F04B24
:1002E0004FF00006002B1FBFB3FA83F503FA05F4A5
:1002F00024FA05F65E4012BF1643B2FA82F502FAFE
:1003000005F4C5F120051EBF22FA05FC44EA0C04E1
:10031000203556EA044C4FEA144418BF641C4FF0D1
:1003200000084FF00009904271EB030C39D300290B
:1003300019BFB1FA81F701FA07F6B0FA80F700FAAF
:1003400007F6C7F120071EBF20FA07FC46EA0C0695
:100350002037B6FBF4FCA7EB0507103F07F01F0B97
:10036000CBF120060CFA0BFB2CFA06F644BFB34681
:100370000026202FA4BF5E464FF0000B5BEA060C60
:1003800008BF4FF0010B19EB0B09ABFB027C48EBEC
:100390000608C01B06FB02CC0BFB03CC71EB0C0167
:1003A000C1E70B46024641464846BDE8F08B13B50F
:1003B0004FF000004FF00001AFF30080BDE81C409B
:1003C000704740EA0103024630B59B0710D14FF059
:1003D000013400E008C208C91D1B9D4315EAC41F73
:1003E000F8D013F0FF0102F8011B0DD01B0AF8E74B
:1003F00011F8013B002B02F8013B05D011F8013B3D
:10040000002B02F8013BF3D130BD10B5431C02E0D4
:1004100010F8011B71B18107FAD14FF0013202C807
:100420008C1A8C4314EAC211F9D0C01A0A0603D000
:10043000C01E10BDC01A10BD0A0401D0801E10BD20
:100440000902FCD0401E10BD032A40F2308010F09B
:10045000030C00F0158011F8013BBCF1020F62445F
:1004600098BF11F801CB00F8013B38BF11F8013BF0
:10047000A2F1040298BF00F801CB38BF00F8013B9D
:1004800011F0030300F02580083AC0F0088051F80D
:10049000043B083A51F804CBA0E80810F5E7121D18
:1004A0005CBF51F8043B40F8043BAFF30080D20737
:1004B00024BF11F8013B11F801CB48BF11F8012B03
:1004C00024BF00F8013B00F801CB48BF00F8012B26
:1004D000704710B5203AC0F00B80B1E81850203AB0
:1004E000A0E81850B1E81850A0E81850BFF4F5AFD4
:1004F0005FEA027C24BFB1E81850A0E8185044BF5E
:1005000018C918C0BDE810405FEA827C24BF51F8CA
:10051000043B40F8043B08BF7047D20728BF31F8BE
:10052000023B48BF11F8012B28BF20F8023B48BF0F
:1005300000F8012B70474FF0000200B513469446B7
:100540009646203922BFA0E80C50A0E80C50B1F12B
:100550002001BFF4F7AF090728BFA0E80C5048BF3F
:100560000CC05DF804EB890028BF40F8042B08BFDD
:10057000704748BF20F8022B11F0804F18BF00F8D9
:10058000012B70474FF0013C50F8042B51F8043B0D
:100590009A4221D1A2EB0C03934313EACC1317D157
:1005A00050F8042B51F8043B9A4215D1A2EB0C03EE
:1005B000934313EACC130BD150F8042B51F8043BAE
:1005C0009A4209D1A2EB0C03934313EACC13DBD07C
:1005D0004FF00000704700BFD01A01BAB1FA81F1A4
:1005E00001F0180122FA01F0CB40C1F12001DBB289
:1005F000C0B2C01A2CFA01F3D11A914311EAC31107
:10060000E6D17047704770477047754600F02CF888
:10061000AE4605006946534620F00700854618B0EF
:1006200020B5FFF745FEBDE820404FF000064FF033
:1006300000074FF000084FF0000B21F00701AC4617
:10064000ACE8C009ACE8C009ACE8C009ACE8C00936
:100650008D46704710B50446AFF300802046BDE8D4
:100660001040FFF710BE000000487047E01F032055
:1006700001491820ABBEFEE7260002007047FEE7E6
:10068000704772B6FEE700002DE9F0410122184CD8
:10069000560200253146204600F03DFB206820F43C
:1006A0004020206020682060012217023946204641
:1006B00000F031FB0A2005F02CFB08E06D1CEDB2C8
:1006C000FA2D04D901F024FA0120BDE8F081314669
:1006D000204600F01BFB0028F0D1002239462046BE
:1006E00000F019FB0A2005F014FB0020EDE70000E4
:1006F0000004024070B53E4888B00024016841F013
:1007000004010160016801F004010791016841F0F2
:10071000020101600068374D00F0020007904FF4BD
:100720000C50009001200190029002200390694635
:10073000284600F0D1F94FF40056002231462846F1
:1007400000F0E9FA322000F0B5F9012231462846DE
:1007500000F0E1FA0A2000F0ADF90122510228462A
:1007600000F0D9FA0A2000F0A5F90122110228466A
:1007700000F0D1FA0A2000F09DF98DF81440012212
:1007800005A9002000F036F901221B49002000F0E5
:1007900097F819490122891EA32000F091F8164903
:1007A0000122491EA82000F08BF813490122491CA0
:1007B000AF2000F085F816208DF81400012205A95D
:1007C000802000F017F9012206A9802000F078F8B7
:1007D0000E208DF81400012205A9882000F00AF9E6
:1007E000012206A9882000F06BF808B070BD000057
:1007F00030380240000402401600002070B5184C4A
:100800004FF4807500222946204600F084FA2068C3
:1008100020F440202060206840F48020206066158D
:1008200000223146204600F076FA052005F071FAE4
:1008300001222946204600F06EFA0A2005F069FAE6
:1008400000222946204600F066FA0A2005F061FAE7
:1008500031462046BDE87040012200F05CBA00003D
:100860000004024070B5154C4FF4807500222946F3
:10087000204600F050FA206820F4402020602068D4
:1008800040F48020206001225102204600F043FA0B
:10089000052005F03EFA01222946204600F03BFAE9
:1008A0000A2005F036FA00222946204600F033FAE5
:1008B000BDE870400A2005F02CBA00000004024098
:1008C00070B515460E46044601F050F9702000F050
:1008D000B5F8FFF7D9FE204600F0B0F8FFF7D4FED8
:1008E00001F044F9712000F0A9F8FFF7CDFE0024D3
:1008F0006D1E06E000F010F83055FFF77FFF641C16
:10090000E4B2AC42F6DB00F007F83055FFF7AAFF7F
:10091000BDE8704001F0FCB82DE9F041174C00250E
:10092000206820F440202060206820602E46A71513
:100930004FF4007800223946204600F0ECF90A20F6
:1009400005F0E7F901223946204600F0E4F90A20D3
:1009500005F0DFF96806050E4146204600F0D6F99D
:1009600008B145F00105052005F0D3F9761CF6B273
:10097000082EDFD32846BDE8F081000000040240C5
:1009800010B501221A490220FFF79AFF184C0122E4
:10099000241F611D2079A0711046FFF791FF207977
:1009A000000724D00122E11D0320FFF789FF012267
:1009B00004F108010420FFF783FF012204F109017B
:1009C0000520FFF77DFF012204F10A010620FFF751
:1009D00077FFE079217A00F0070041EA0020A0814A
:1009E000607AA17A00F0070041EA0020E08110BDA2
:1009F000180000202DE9F04116460F460446002558
:100A000001F0B4F8702000F019F8FFF73DFE204621
:100A100000F014F8FFF738FE002408E0385D00F01D
:100A20000DF8FFF731FE050003D1641CE4B2B442B7
:100A3000F4D301F06DF82846BDE8F0812DE9F041CE
:100A40001B4C06462046216821F440212160216884
:100A500041F480212160A7150022394600F05BF99E
:100A600000254FF40078300601D5012200E0002275
:100A70004146204600F04FF90A2005F04AF90122CC
:100A80003946204600F047F90A2005F042F90022D5
:100A90003946204600F03FF90A2005F03AF9700681
:100AA0006D1C060EEDB2082DDDD3BDE8F08100000F
:100AB0000004024070B5044600F032F90546601C9F
:100AC00002D004480078044400F02AF9401BA042F8
:100AD000FAD370BD040000202DE9F84FDFF8F8A12B
:100AE0000022012403254FF00F090AF1040BAAF19B
:100AF000040E00BF0B6804FA02F63340B34270D113
:100B00000F7907F00307012F01D0022F16D1876854
:100B10004FEA420805FA08FC27EA0C07D1F80CC096
:100B20000CFA08FC4CEA070CC0F808C04768B74349
:100B30000E79C6F3001696403E4346600E79F643A2
:100B4000B6070AD0C7684FEA420C05FA0CF6B7435D
:100B50008E6806FA0CF63E43C6600E7906F0030670
:100B6000022E10D1D60800EB8608D8F8206057076F
:100B70004FEAD76C09FA0CF7BE430F6907FA0CF776
:100B80003743C8F8207006684FEA420C05FA0CF7A4
:100B9000BE430F7907F0030707FA0CF737430760E6
:100BA0004E6816F4403F1CD04C4E376847F48047DF
:100BB0003760366822F0030706F480460096484EF8
:100BC00007EB060CDCF8086897073F0F09FA07F8EF
:100BD00026EA0806DFF80C81404503D14FF00008F3
:100BE00041E072E0DFF80081404502D14FF001089A
:100BF00039E0DFF8F880404502D14FF0020832E0DA
:100C0000DFF8EC80404502D14FF003082BE0DFF81D
:100C1000E480404502D14FF0040824E0DFF8D8809A
:100C2000404502D14FF005081DE0DFF8D080404577
:100C300002D14FF0060816E0DFF8C480404502D12B
:100C40004FF007080FE0DFF8BC80404502D14FF0BD
:100C5000080808E0DFF8B080404502D14FF00908ED
:100C600001E04FF00A0808FA07F848EA0608CCF84D
:100C70000888DAF800605746D1F804C09E435FEA5E
:100C8000CC2C00D51E433E60DBF800605F46D1F8F7
:100C900004C09E435FEA8C2C00D51E433E60DEF804
:100CA00000607746D1F804C09E435FEA8C3C00D5D3
:100CB0001E433E60084F083F3E68D1F804C09E4383
:100CC0005FEACC3C00D51E433E60521C102AFFF464
:100CD00011AFBDE8F88F0000083C014044380240E5
:100CE00000300140000002400004024000080240C1
:100CF000000C0240001002400014024000180240A4
:100D0000001C02400020024000240240006908400C
:100D100000D0012070470AB1816170470904FBE7E8
:100D20000148806870470000040000200248816884
:100D30000278114481607047040000200B4810B510
:100D4000016841F400710160016841F48061016053
:100D5000016841F480710160032000F06FF80F20FA
:100D600000F006F800F024F8002010BD003C02401E
:100D700070B50D4D04464FF47A712878B1FBF0F050
:100D80000A490968B1FBF0F000F0C0FB48B9102C2B
:100D900007D200222146501E00F030F800206C607F
:100DA00070BD012070BD0000040000201000002074
:100DB0000A4808B5016841F480410160006800F408
:100DC000804000900548001F016841F0805101609B
:100DD000006800F08050009008BD000044380240D8
:100DE000002809DB00F01F0201219140400980002A
:100DF00000F1E020C0F8001170470000F0B40E4B85
:100E00001B680C46C3F30223C3F10705042D00D968
:100E10000425191D072901D2002300E0DB1E01264D
:100E200006FA05F1491E214099409E40761E164063
:100E30003143F0BC01F0A6BA0CED00E0064900F029
:100E4000070208684FF6FF03184040EA0220034AF1
:100E500010430860704700000CED00E00000FA0548
:100E60002DE9F8431748016841F08051016000689E
:100E7000154F00F08050012600903E64FFF750FFB0
:100E800005464FF47A78114C05E000BFFFF748FFA4
:100E9000401B40450DD86068C003F7D57E64FFF75E
:100EA0003FFF0546464607E0FFF73AFF401BB042CA
:100EB00002D90320BDE8F88360688003F4D50020E0
:100EC000F8E700004038024000000E420070004089
:100ED0002DE9F0470E46050065D0DFF81481D8F8FB
:100EE0000000F7B200F00F00B04207D288F800709F
:100EF000D8F8000000F00F00B04254D128683D4CF3
:100F0000810712D5400703D5206840F4E0502060E7
:100F10002878000703D5206840F4604020602068EE
:100F2000A96820F0F000084320602878C0072DD081
:100F3000304968680839012812D0022813D00328E4
:100F400011D00968890700292DDA216821F00301F1
:100F500001432160FFF7E4FE814641F2883A0EE04A
:100F600009688903EFE709688901ECE7FFF7D8FE14
:100F7000A0EB0901514502D90320BDE8F0872068A4
:100F8000696800F00C00B0EB810FEFD1D8F80010C9
:100F9000404601F00F01B14207D90770006800F028
:100FA0000F00B04201D00120E7E72878400705D5BF
:100FB0002068E96820F4E0500843206028780007A2
:100FC00006D52068296920F4604040EAC10020600D
:100FD00000F018F82168084AC1F30311515CC840B9
:100FE0000649086006480068FFF7C2FE0020C4E713
:100FF000003C024008380240E27102081000002064
:1010000008000020154810B5006810F00C021448C4
:1010100013D04110042A0FD0082A0ED10F4C241FE0
:101020002268236802F03F025B0207D52068C0F304
:101030008810A0FB010106E0084610BD2168C1F33D
:101040008811A1FB00010023FFF744F92168C1F3D7
:101050000141491C4900B0FBF1F010BD08380240C5
:101060000024F4002DE9F84F04006ED02078DFF85A
:101070006093C007A9F104054AD009F10400016892
:10108000C1F38101012908D00068C0F38100022862
:101090000AD1D9F80000400206D52868800337D568
:1010A00060680028E1D033E06068B0F5803F10D080
:1010B000B0F5A02F286810D020F480302860286870
:1010C00020F4802028606068A8B1FFF729FE06465A
:1010D0000DE0286840F48030F4E740F48020286078
:1010E000F7E700BFFFF71CFE801B642873D8286851
:1010F0008003F7D50CE0FFF713FE064605E000BFBE
:10110000FFF70EFE801B6428F0D828688003F7D410
:101110002078DFF8C08280074FF0000A3ED5AC4847
:10112000001D016811F00C0F08D00068C0F38100A9
:1011300002280BD1D9F80000400207D428688007A4
:1011400016D5E068012800D112E03CE1E068B8B1B2
:101150000120C8F80000FFF7E3FD064605E000BFE8
:10116000FFF7DEFD801B0228C0D828688007F7D56E
:101170002868216920F0F80040EAC10028600DE0ED
:10118000C8F800A0FFF7CCFD064604E0FFF7C8FD55
:10119000801B02281FD828688007F7D42078000712
:1011A00022D58B4E8C486169703671B10121016086
:1011B000FFF7B6FD074604E0FFF7B2FDC01B0228AB
:1011C00009D830688007F7D50EE0C0F800A0FFF717
:1011D000A7FD074605E082E0FFF7A2FDC01B02283D
:1011E0007DD830688007F7D42078400768D5DFF8CD
:1011F000E0B100270BF13C0BDBF80000C0000BD482
:10120000DBF8001041F08051CBF80010DBF8000053
:10121000012700F080500090704E3068C00510D457
:10122000306840F480703060FFF77AFD009005E090
:10123000FFF776FD0099401A022850D83068C005A3
:10124000F6D5634EA0686C3601280FD005283068AB
:1012500010D020F001003060306820F004003060D1
:10126000A068B8B1FFF75CFD00900FE0306840F077
:101270000100F4E740F004003060F7E7FFF750FDAD
:101280000099411A41F28830814268D8306880075D
:10129000F4D50EE0FFF744FD009007E0FFF740FDB6
:1012A0000099411A41F28830814258D8306880074D
:1012B000F4D42FB1DBF8001021F08051CBF80010EE
:1012C000A069D8B34249091D0968C1F38101022907
:1012D0004CD00228504607D0C8F8600000E03EE03D
:1012E000FFF71EFD04463DE04746C8F86000FFF7E3
:1012F00017FD064605E000BFFFF712FD801B022820
:101300002DD828688001F7D4F4E907010843E16883
:10131000334A490802EB0141A26841EA82110843BD
:10132000217C40EA0160217D40EA0171C9F800108A
:1013300001203866FFF7F4FC044606E045E000BFF4
:10134000FFF7EEFC001B022809D828688001F7D5BA
:101350003BE000BFFFF7E4FC001B022802D903209A
:10136000BDE8F88F28688001F4D42EE00128F7D07A
:10137000D9F80000E26900F48001914223D1226A89
:1013800000F03F0191421ED147F6C071626A0140F0
:10139000B1EB821F17D1A26A4FF0FF3300F4403146
:1013A00003EB5202B1EB024F0DD194F82C2000F068
:1013B0007061B1EB026F06D194F8301000F0E0409C
:1013C000B0EB017F01D00120CAE70020C8E7000090
:1013D0000438024000004742800E4742007000403F
:1013E0000000FFFF70B5040009D0606A002540B11D
:1013F00025616561A56294F8510040B10CE00120BF
:1014000070BD6068B0F5827FF4D0E561F2E784F8E2
:101410005050204600F044F8022084F85100206823
:10142000016821F040010160A088218900F48270E8
:1014300001F404410843A18901F400610843217CBF
:1014400001F002010843217D01F001010843218BD5
:1014500001F400710843217F01F03801084394F83A
:10146000201001F080010843218D01F40051084350
:1014700021680860A069042101EA104094F8241052
:1014800001F010010843216848602068C16921F417
:101490000061C1616565012084F85100002070BDC4
:1014A00010B586B0044614216846FFF744F8144985
:1014B0002068884221D113480021026842F40012BA
:1014C0000260006800F4001005900E4814380268AD
:1014D00042F040020260006800F0400005904FF4C6
:1014E000C04000900220CDE90101032003900520B7
:1014F000049069460448FFF7EFFA06B010BD0000FB
:1015000000540140443802400018024010B5401E0B
:10151000B0F1807F01D3012010BD4FF0E024606165
:101520000F21601700F02EFF0020A061072020612E
:10153000002010BD7047704770B590F83C20012A1C
:1015400032D0012480F83C40022280F83D2003681C
:101550005A689D6822F070060A6832435A60134B3D
:1015600002689A4214D0B2F1804F11D0104B9A42C7
:101570000ED0104B9A420BD00F4B9A4208D00F4B13
:101580009A4205D00E4B9A4202D00E4B9A4204D199
:10159000496825F080031943916080F83D4000219F
:1015A00080F83C10084670BD022070BD000001406C
:1015B0000004004000080040000C0040000401400E
:1015C000004001400018004010B5040003D094F81A
:1015D0003D0010B107E0012010BD002084F83C0060
:1015E000204600F01FF8022084F83D00211D2068ED
:1015F00000F02EFE012084F8460084F83E0084F8B6
:101600003F0084F8400084F8410084F8420084F8E8
:10161000430084F8440084F8450084F83D0000202D
:1016200010BD000008B50068B0F1804F12D10A4823
:10163000016841F0010101600068002200F0010032
:10164000009011461C20FFF7D9FBBDE808401C2084
:10165000FFF7C6BB08BD00004038024090F83D10BF
:10166000012901D001207047022180F83D10016856
:10167000CA6842F00102CA6000681149884214D069
:10168000B0F1804F11D00F4988420ED00E498842E8
:101690000BD00E49884208D00D49884205D00D492B
:1016A000884202D00C49884204D1816801F00701C8
:1016B000062903D0016841F0010101600020704754
:1016C000000001400004004000080040000C004001
:1016D00000040140004001400018004070B504467D
:1016E00090F83C000025012817D0012684F83C60C2
:1016F000022084F83D002068826822F0770222F4FC
:101700007F4282600868502838D00DDC20284FD0F6
:1017100005DC90B3102811D14AE0022070BD3028BA
:1017200046D040280AD13BE060282FD070280DD049
:10173000B0F5805F03D0B0F5005F12D0012584F8CA
:101740003D60002084F83C00284670BDCB68D1E99C
:101750000121206800F0E0FD2068816841F07701F8
:1017600009E0CB68D1E90121206800F0D5FD2068AF
:10177000816841F480418160E1E719E0CA68496805
:10178000206800F0DBFD5021206806E0CA68496847
:10179000206800F0E4FD6021206800F0C7FDCEE77E
:1017A000CA684968206800F0C9FD40212068F4E754
:1017B000226801461046F0E7704770B5044600689D
:1017C00001694FF00005C943890715D4C168C943B1
:1017D000890711D4E91E0161012020772068806902
:1017E0008007204602D0FFF7E7FF04E000F098F8FA
:1017F000204600F096F8257720680169C94349071B
:1018000017D4C168C943490713D46FF004010161BB
:10181000022020772068806910F4407F204602D0A3
:10182000FFF7CAFF04E000F07BF8204600F079F8EB
:10183000257720680169C943090716D4C168C943DF
:10184000090712D46FF00801016104202077206895
:10185000C0698007204602D0FFF7AEFF04E000F029
:101860005FF8204600F05DF8257720680169C943DC
:10187000C90617D4C168C943C90613D46FF0100153
:101880000161082020772068C06910F4407F20465D
:1018900002D0FFF791FF04E000F042F8204600F08C
:1018A00040F8257720680169C943C90708D1C16894
:1018B000C943C90704D1891E0161204600F032F8EE
:1018C00020680169C943090609D4C168C9430906EA
:1018D00005D46FF0800101612046FFF72BFE2068E0
:1018E0000169C943490609D4C168C943490605D4F9
:1018F0006FF040010161204600F02CF8206801697A
:10190000C94389060BD4C168C943890607D46FF05F
:10191000200101612046BDE87040FFF70CBE70BD9C
:101920007047704710B50068B0F1804F0FD10120AB
:101930001EF026FD06480188491C89B20180022953
:1019400005D300210180BDE81040FFF719B810BD94
:10195000000000207047FEE7F0B5D1B005460C4608
:1019600068460EF0EFFBC8200A9040486946CDE972
:1019700000104FF4C8763E480796CDE90550604206
:101980004FF480770B9000216846CDE908670EF090
:101990005AFC68460EF06AFC10A80EF0D3FBC82073
:1019A0001A90324810A9CDE9101031481796CDE9A8
:1019B000155004F5FA7040421B90002110A8CDE9A3
:1019C00018670EF040FC10A80EF050FC20A80EF096
:1019D000B9FBC8202A90254820A9CDE92010244829
:1019E0002796CDE9255004F57A7040422B900021CE
:1019F00020A8CDE928670EF026FC20A80EF036FCC2
:101A000030A80EF09FFBC8203A90184830A9CDE9C5
:101A1000301017483796CDE9355004F2DC5040427B
:101A20003B90002130A8CDE938670EF00CFC30A8BF
:101A30000EF01CFC40A80EF085FBC8204A900B4815
:101A400040A9CDE940100A484796CDE9455004F534
:101A5000FA6460424B90002140A8CDE948670EF03F
:101A6000F2FB40A80EF002FC51B0F0BDB53E0008FC
:101A7000DF01010830B591B005460C4668460EF00E
:101A800061FB4FF496700A900A486946CDE9001050
:101A9000C82000210790CDE908010748CDE905508D
:101AA00060420B9068460EF0CEFB68460EF0DEFBFF
:101AB00011B030BDBD3E0008AB01010830B591B09A
:101AC00005460C4668460EF03DFB4FF496700A90B2
:101AD0000C486946CDE900100020C821CDE9080175
:101AE000079009480021CDE9055060420B906846F7
:101AF0000EF0A9FB0548049068460EF0B7FB11B044
:101B000030BD0000BD3E000803020108AF3E0008E2
:101B100070B5154C206820F440202060206840F407
:101B200080202060A515002229462046FFF7F3F803
:101B30006615002231462046FFF7EDF8052004F037
:101B4000E8F8012229462046FFF7E5F8042004F0D2
:101B5000E0F8012231462046FFF7DDF8BDE870408D
:101B6000052004F0D6B800000004024070B5154C02
:101B7000206820F440202060206840F4802020600D
:101B80000122550229462046FFF7C5F80122160218
:101B900031462046FFF7BFF80A2004F0BAF80022C9
:101BA00029462046FFF7B7F8052004F0B2F80022D6
:101BB00031462046FFF7AFF8BDE870400A2004F038
:101BC000A8B8000000040240F0B50E4C0646002103
:101BD0006088401E83B22088401E82B2084600F012
:101BE0005DF90025370A06E0384600F085F9F0B2C5
:101BF00000F082F96D1C608821884843A842F3D820
:101C0000F0BD00000004002010B500F033F964209E
:101C1000FEF750FFF02000F087F9C32000F06CF9C8
:101C2000F02000F081F9962000F066F9362000F0EF
:101C30007BF9682000F060F93A2000F075F9052082
:101C400000F05AF9B02000F06FF9802000F054F94C
:101C5000B62000F069F9002000F04EF9022000F0F3
:101C60004BF9B52000F060F9022000F045F903209F
:101C700000F042F9002000F03FF9042000F03CF9A8
:101C8000B12000F051F9802000F036F9102000F06A
:101C900033F9B42000F048F9002000F02DF9B72006
:101CA00000F042F9C62000F027F9C52000F03CF909
:101CB000242000F021F9E42000F036F9312000F072
:101CC0001BF9E82000F030F9402000F015F98A20D7
:101CD00000F012F9002000F00FF9002000F00CF9DC
:101CE000292000F009F9192000F006F9A52000F0DC
:101CF00003F9332000F000F9C22000F015F9A72005
:101D000000F012F9E02000F00FF9F02000F0F4F8F4
:101D1000092000F0F1F8132000F0EEF8122000F096
:101D2000EBF8122000F0E8F82B2000F0E5F83C205A
:101D300000F0E2F8442000F0DFF84B2000F0DCF87F
:101D40001B2000F0D9F8182000F0D6F8172000F07A
:101D5000D3F81D2000F0D0F8212000F0CDF8E120CC
:101D600000F0E2F8F02000F0C7F8092000F0C4F815
:101D7000132000F0C1F80C2000F0BEF80D2000F098
:101D8000BBF8272000F0B8F83B2000F0B5F844205D
:101D900000F0B2F84D2000F0AFF80B2000F0ACF8E6
:101DA000172000F0A9F8172000F0A6F81D2000F079
:101DB000A3F8212000F0A0F8362000F0B5F8EC20C0
:101DC00000F09AF8F02000F0AFF8C32000F094F88B
:101DD000F02000F0A9F8692000F08EF8132000F040
:101DE000A3F8112000F0A0F8292000F09DF80020B1
:101DF00000F0C2F804490120C1F8A802BDE8104073
:101E00004FF47840FFF7E0BE000041422DE9F04377
:101E1000141A641CA7B25C1A641C00251FFA84F80B
:101E2000DDF81C9000F03AF8002611E000240BE0E9
:101E300019F8150000F060F809EB4500407800F053
:101E40005BF8641CA4B26D1CBC42F1D3761CB6B224
:101E50004645EBD3064841880088BDE8F043491E5B
:101E6000401E8BB282B20021084600F017B8000075
:101E70000004002010B5084C0020C4F89002642033
:101E800004F52474FEF716FE01202060BDE8104022
:101E90003220FEF70FBE0000008040422DE9F041E5
:101EA000DFF8508007461C4615460E4698F80C0091
:101EB00000F03AF8380A00F01FF8F8B200F01CF809
:101EC000280A00F019F8E8B200F016F898F80E00A9
:101ED00000F02AF8300A00F00FF8F0B200F00CF829
:101EE000200A00F009F8E0B200F006F8BDE8F04181
:101EF00000F032B80004002030B5094D0022C5F8CA
:101F0000A02208490124C1F89842C1F89C22C1F8D6
:101F10009C4205F5287500F01FF92C6030BD0000CB
:101F2000000040420000414230B5094C0021C4F895
:101F3000A012084AC2F89812C2F89C120125C2F8F1
:101F40009C5204F5287400F007F9256030BD0000AC
:101F500000004042000041420148007AFFF7E4BF20
:101F60000004002010B50C46C0B2FFF7DDFFE0B260
:101F7000BDE81040FFF7C0BF13492A224FF4A073F9
:101F80008A812B22CA812C220A812E224A814FF477
:101F9000F07258B101280DD002280FD0032811D1BA
:101FA0000A804B80F8213620FFF7DCBF0B804A8087
:101FB0004821F8E70A804B802821F4E70B804A800B
:101FC0009821F0E770470000000400202DE9F0435D
:101FD00087B014216846FEF7AEFA2F480024016846
:101FE00041F040010160016801F040010591016884
:101FF00041F002010160016801F0020105910168F0
:1020000041F001010160016801F0010105910168E1
:1020100041F004010160016801F0040105910168CB
:1020200041F08001016000681C4F00F080000590C5
:10203000002210213846FEF76EFEDFF86480BE15E0
:10204000002231464046FEF766FEDFF85890012236
:10205000C0214846FEF75FFE102000900125CDE923
:102060000154694638460394FEF736FDCDE9006514
:102070000326CDE9024669464046FEF72DFDC02005
:10208000CDE90005CDE9024669464846FEF724FD44
:1020900007B0BDE8F0830000303802400004024081
:1020A00000000240000802400F4810B50D490160D1
:1020B0004FF48271416000218160C1604FF4007271
:1020C0000161C0E90512C1610162416281620A21B8
:1020D000C162FFF787F9002803D0BDE81040FEF782
:1020E000D0BA10BD005401406003002010B586B086
:1020F00000241648009401940294039404944FF031
:102100008041059401606421C0E901144FF47A71A3
:10211000C0E903148461FFF757FA08B1FEF7B1FA7A
:102120004FF48050009069460848FFF7D7FA08B18D
:10213000FEF7A7FA049404A904480594FFF7FCF9F4
:10214000002801D0FEF79DFA06B010BDB8030020AC
:10215000FEE7FEE77047000030B5082100230A4A79
:102160000124050602D5C2F8984201E0C2F898326F
:10217000C2F89C32C2F89C424006000E491E11F083
:10218000FF01EED130BD0000000041427047FEF774
:10219000CDBD000030B593B034216846FEF7CBF9D1
:1021A00014210DA8FEF7C7F920480025016841F069
:1021B00080510160006800F0805012901C48016856
:1021C00041F4404101600068022400F44040129054
:1021D0000120039010200490009406940820CDE97B
:1021E0000750B420CDE909040420CDE90B0468466A
:1021F000FEF738FF08B172B6FEE7FEF731FE08B110
:1022000072B6FEE70DA90F2081E831004FF4A0500F
:1022100010904FF48050119005210DA8FEF758FE44
:10222000002801D072B6FEE713B030BD403802403E
:10223000007000400248016841F47001016070477D
:1022400088ED00E00148FFF7B8BA0000B8030020AD
:10225000F0B50268254C264D264E274F274B4FF0F0
:10226000804CA04209D0604507D0A84205D0B042BA
:1022700003D0B84201D0984204D122F0700E4A68CF
:1022800042EA0E02A0421BD0604519D0A84217D0E6
:10229000B04215D0B84213D0984211D0184DA84280
:1022A0000ED0184DA8420BD0174DA84208D0174D9C
:1022B000A84205D0164DA84202D0164DA84203D11F
:1022C00022F44075CA682A434D6922F080022A43ED
:1022D00002608A68C2620A688262A04201D09842A3
:1022E00001D10969016301214161F0BD0000014094
:1022F0000004004000080040000C004000040140C1
:1023000000400140004401400048014000180040E6
:10231000001C00400020004010B5846842EA0322FF
:1023200024F47F440A432243826010BD826822F075
:1023300070020A4342F007018160704710B5036ADA
:10234000046A24F001040462846924F0F00444EA7D
:10235000021423F00A020A438461026210BD10B520
:10236000036A23F0100303628369046A23F4704351
:1023700043EA023224F0A00343EA011182610162C0
:1023800010BDFEE70907090E002804DB00F1E0207C
:1023900080F80014704700F00F0000F1E02080F892
:1023A000141D704770B5044600256FF02F0608E035
:1023B0002068411C2160007805EB850106EB410196
:1023C00045182068007800F004F80028F0D128466D
:1023D00070BD3038092801D80120704700207047AF
:1023E00010B54021074801F084F800221E2106485C
:1023F0001EF020F8054CA06002F008F900202070C3
:1024000010BD00008C050020B5460008D402002055
:1024100070B5B1F90030B2F90040A34200DC2346A8
:102420000380B1F90250B2F90240A54200DD2C460A
:102430004480B1F90460B2F90450AE4200DA354686
:102440008580B1F90610B2F90620914200DB1146F1
:10245000C1800120AB4201DC8C4200DD002070BD58
:10246000F8B50D460446B0F90000B1F90010164663
:10247000884247DBB4F90210B5F90220914241DBF2
:10248000B4F90410B5F9042091423BDCB4F906100C
:10249000B5F90620914235DC96B3ADF800006088AE
:1024A000ADF8020032466946284600F099F8002847
:1024B00027D0A088ADF800006088ADF80200324651
:1024C0006946284600F08CF800281AD02088ADF81C
:1024D0000000E088ADF8020032466946284600F068
:1024E0007FF800280DD0A088ADF80000E088ADF896
:1024F000020032466946284600F072F8002800D0F3
:102500000120F8BD0020F8BDB0F90020B1F9043079
:102510009A4213DCB0F90420B1F900309A420DDB85
:10252000B0F90220B1F906309A4207DCB0F9060092
:10253000B1F90210884201DB01207047002070478A
:10254000F8B50D460446B0F90400B1F9001016467E
:10255000884243DBB4F90600B5F9021088423DDB3E
:10256000B4F90000B5F90410884237DCB4F9021060
:10257000B5F90620914231DC76B3ADF800006088F1
:10258000ADF8020032466946284600F029F818BB2B
:10259000A088ADF800006088ADF8020032466946B8
:1025A000284600F01DF8B8B92088ADF80000E08892
:1025B000ADF8020032466946284600F011F858B9D5
:1025C000A088ADF80000E088ADF802003246694608
:1025D000284600F005F808B10020F8BD0120F8BD3C
:1025E0002DE9FC4114460E46B1F90020B0F9001067
:1025F00005468A423ADBB5F90400824236DCB6F978
:102600000270B5F90220974230DBB5F906309F42DF
:102610002CDC002C75DD401A9A1A401C521C00B2AA
:1026200012B200EBD07002EBD27240105210904206
:1026300000DB1046844200DD0446ADF80010288817
:1026400000222044ADF804006888ADF802006888D4
:1026500031462044ADF806006846FFF7C1FF40B19F
:10266000BDF804002044ADF804003FE00020BDE8C0
:10267000FC81E8880022001BADF80200E888ADF874
:10268000060031466846FFF7ABFF28B1BDF80400ED
:102690002044ADF8040011E0A8880022001BADF82A
:1026A0000000A888ADF8040031466846FFF798FF9F
:1026B00050B1BDF80000001BADF80000BDF80200ED
:1026C000001BADF8020016E06888ADF802006888CB
:1026D00000222044ADF8060031466846FFF780FF2F
:1026E00070B1BDF80000001BADF80000BDF8060099
:1026F0002044ADF80600314668461BF015FAB6E7EF
:10270000FFE70120B3E710B5B1F90040B2F900309E
:102710009C4200DA23460380B1F90240B2F902304C
:102720009C4200DA23464380B1F90440B2F90430F8
:102730009C4200DD23468380B1F90610B2F90620E1
:10274000914200DC1146C18010BD0000FEB5074675
:102750001DF00CFE0025354C0646009537B1F86893
:10276000606038461DF034FF606802E010F008FE3B
:10277000606000691BF06CF96068406908B11BF08B
:1027800067F96068C0691BF063F96068006A1BF054
:102790005FF960680169E1B31BF024FC1BF092FB58
:1027A0006068B0F8501199B30168097C890715D5A4
:1027B00010F044FE401E07B2606810F0F9FD401EA4
:1027C00003B20022114601A800970EF06CFA60686F
:1027D00001A90268926B516004F02EFA60684FF410
:1027E0008071303016F03AFF6068202100F5987053
:1027F00016F034FF6068A0F8505130461DF0B0FD6F
:10280000009060680068436A13B122680099984795
:1028100000E007E016F064FD00F036F8BDE8FE4089
:1028200000F006B8A0F85051FEBD00008001002065
:1028300070B50A4D002400BFC4EBC40655F826004D
:1028400008B116F0C1FD05EB86001C2116F006FF4D
:10285000641CE4B2042CEFD370BD000068060020B5
:10286000084949680AE04A68824202D00A688242FE
:1028700003D10A7E42F001020A7649690029F2D1A9
:1028800070470000540100207047000004210148F7
:1028900000F02FBE800500201C21014800F029BE59
:1028A000980500202DE9FF5F0446DDE90E0613B907
:1028B000B0F5807F7ED0B6F900504FF0FF376D4203
:1028C000454307EB25252DB22580B6F902C0CCF192
:1028D000000C0CFB00FC07EB2C273FB26780B6F91D
:1028E00000C0A1EB0C0141434FF0020C0CEB212185
:1028F00009B2A180B6F90280A2EB080242430CEBB8
:10290000222000B2E080002B7ED04FF00A0A93FB19
:10291000FAF5684200EB800003EB400705F101097E
:1029200028B21DF095FF00900FFA89F01DF090FF7E
:1029300083465A3528B21DF08BFF804609F15A00B4
:1029400000B21DF085FF0146009AC7F10A0000FBA6
:1029500002F300FB08F00BFB073301FB070193FBBD
:10296000FAF291FBFAF04FEA601AB4F90010B4F9E8
:1029700002000AFB01FCCDF80CC05511378805FB9D
:1029800010C207EBA2220FFA82F905FB01F2BB4647
:10299000029277880AFB002107EBA1210BB2B4F960
:1029A0000410BE460AFB01FC05FB10C20BEBA22281
:1029B00016B200E02FE005FB01F7CDE9007CB4F989
:1029C0000680DDF80CC00AFB007005FB18C1DDF8BD
:1029D00004C0009F05FB18C5029A0AFB087C0AFB8D
:1029E00008220BEBA1210EEBAC270EEBA02009B2C5
:1029F0000EEBA2220BEBA5250FFA87FC00B212B258
:102A00002DB24F46494500E00EE000DA0F46B542D0
:102A100016DAA84615E000202080491E6080A180BB
:102A2000521EE280BDE8FF9F32882A4422807288CD
:102A30003A44628032881144A180718808444FE092
:102A4000B046474504DA4F46494506DA0F4604E0EA
:102A5000B54201DA2F4600E0374627804F46494508
:102A600000DD0F46B54201DDA84600E0B04647450F
:102A700003DD4D46494505DC01E0B54201DD29464F
:102A800000E03146A1809A4201DA154600E01D4679
:102A9000844501DA614600E001468D4205DA9A423A
:102AA00001DA114606E0194604E0844501DA614680
:102AB00000E0014661809A4201DD114600E01946BE
:102AC000844501DD654600E00546A94205DD9A42E0
:102AD00001DD104604E0184602E0844500DD604652
:102AE000E0809FE72DE9FE4F0446D0F800B0B0F932
:102AF0000800E589081AB4F90A10511AD4E9093214
:102B0000B5F5807F38D0A589ADB3A66B704345116C
:102B10004E437011266BE16A06FB05F701FB107747
:102B2000694306FB001003EBA72902EBA0208046B7
:102B30000612B4F904004FEA2927B8424EDD002FEF
:102B40004CDBB4F90610B14248DD002E46DB94F8A8
:102B500034104A0745D58A0704F1140322D400FB38
:102B6000067045004FF0020A0BEB0501524618466D
:102B700016F02AFD27E00DE0256BE66A05FB00F75D
:102B800006FB1177464305FB016003EBA70902EB47
:102B9000A000CCE7A56B68434D4303EB601902EB43
:102BA0006510C4E700FB067000EB40054FF0030A18
:102BB0000BEB05010222184616F006FDE81C5844EE
:102BC00010F8010CA07594F83400C0071FD04EF225
:102BD0000700ADF80000A18A814218D10020BDE8AD
:102BE000FE8F32B204F118002369CDE901020025FD
:102BF00039B2AA468B4613F0B7FF0090BDF800002B
:102C0000A082DDE90102594613F046FFDAE7E07CD5
:102C100078B1A4F83C90A4F83E80A4F84070A4F8E1
:102C20004260656484F848A02046BDE8FE4F00F08D
:102C300002B80120D3E72DE9F04F044690F83C108C
:102C4000D0F8009090F83E0087B04FF0FF36702922
:102C500007DAB4F940203546012A00D50025803135
:102C60000DE0902916DDB4F94020B4F904300125B7
:102C7000521C9A4200DB0025A1F27F114942C9B2E1
:102C80008846702809DAB4F94210012900D50026D7
:102C9000803010E00025FF21F2E790280DDDB4F927
:102CA0004210B4F906200126491C914200DB00269F
:102CB000A0F27F104042C7B201E00026FF27606902
:102CC0000090A07D0590002083468246049094F8F1
:102CD0003400400744D594F84810606C11FB05019E
:102CE0004944022201A816F06FFCA08894F848100D
:102CF00010FB01F0616C022206FB0011494403A89D
:102D000016F062FCA18894F8480011FB00F1626C97
:102D100006FB012210FB05901118022202A816F0F2
:102D200053FC94F83400800761D594F84800626C35
:102D300010FB052300EB09010B4413F8013C04933D
:102D4000A38813FB00F306FB0322114411F801BC16
:102D500010FB0500111801EB090010F8010C45E00B
:102D6000B4F84000B4F94220284401B204F118003C
:102D70008146236913F0F8FE0190B4F84200B4F9DB
:102D80004010304402B254F8103F484613F0ECFEB5
:102D90000390608E2368304402B2208E284401B232
:102DA000484613F0E1FE029094F82400103C80079E
:102DB0001DD5B4F9422034F8400F284401B24846EA
:102DC00013F06AFE04906088B4F90010304402B237
:102DD000484613F061FE83466088304402B234F8FE
:102DE0004009284401B2484613F056FE824694F842
:102DF000340042464546800735D5059810FB08F358
:102E00000499C8F1FF0011FB0031C1F307211BFB3E
:102E100008F61AFB0060C0F3072011FB07F3C7F1A7
:102E2000FF0610FB06331B0AA375022907D80228E8
:102E300003D8002007B0BDE8F08F002702E0022889
:102E400000D8FF270598022800D8002204980228FD
:102E500000D8FF22BBF1020F00D80025BAF1020F03
:102E600003D8FF2501E0FF20A075EAB1FF2A04D0B6
:102E7000DDE900010FF0AFFC0090BDB1FF2D17D0D0
:102E8000DDE902102A460FF0A6FC049097B1FF2F4F
:102E900005D001463A4600980FF09DFC0090BDF821
:102EA0000000A0820120C5E70198E5E70298ECE761
:102EB0000398EAE7BDF81000F3E700002DE9F047BA
:102EC0000446B0F908000A2700026062B4F90A005B
:102ED0000002A062B4F90C1091FBF7F5684200EB18
:102EE000800001EB4006684205F1010800B21DF0C8
:102EF000AFFC8246E84300B21DF0AAFC8146C5F152
:102F00005A0000B21DF0A4FC0546C8F15A0000B2F8
:102F10001DF09EFCC6F10A0101FB0AF3024609FB03
:102F20000630694390FBF7F002FB061191FBF7F1C5
:102F30004011E06248112063A07C13F0C5FE94F8B4
:102F4000341060F3000184F83410A07C13F0ACFE60
:102F500094F8341060F3410184F83410A07C042804
:102F600024D0052822D0062820D021F0040100BF5B
:102F700084F8341021682162A16921F0E00160F336
:102F80000401A08860F39421E08860F35F51A1619F
:102F9000E0894FF4001101EB5001B1FBF0F0A063A8
:102FA000FF20A075208AA082BDE8F08741F00401CF
:102FB000DEE700002DE9F04115460E460746114CAC
:102FC0001DF0D4F980462B4632463946204614F08F
:102FD000FDF920B10020A062E06950B110E02C2181
:102FE000204616F03BFB4FF00040A0620020BDE8F9
:102FF000F08140461DF0B4F9E06108B90120E061BC
:103000002046F4E7BC05002010B51421074800F065
:1030100070FA14F0A1F940B1054901600549416019
:10302000054981600549C16010BDFEE7A405002087
:10303000856D01080171010879720108516D01085F
:1030400070B50D4604461021284616F007FB20688F
:103050000078012804D0022807D0042807D008E00F
:10306000208A2880608A688003E0E06800E00A2007
:10307000686020684268002A03D02946BDE8704095
:10308000104770BDFEB5866A0446BEB9A08A218A83
:103090000844A082E08A618A0844E082204609F060
:1030A00058FF060079D020460CF0BEF90022092115
:1030B000304613F009F8607880076ED4208A10B982
:1030C000608A002869D00025ADF80450ADF808509A
:1030D00094F83C0000F00F000328304616D018F09A
:1030E0003BF80746304617F0F1FE03460C200090EF
:1030F000B4F912103A46304609F00CFBADF808005E
:10310000304617F035FFC10712D017E017F0B8FFAF
:103110000746304617F054FF024603200090B4F9EA
:1031200010103B46304609F0F5FAADF80400E7E729
:10313000BDF90410002901DDADF80450810705D464
:10314000BDF90410002901DAADF80450410705D497
:10315000BDF90810002901DDADF80850000705D4BD
:10316000BDF90800002801DAADF8085002AA01A94B
:1031700020461FF05AF80023BDF90820BDF90410BD
:10318000304619F073FFA08ABDF804100844A082ED
:10319000E08ABDF808100844E082FEBD2DE9FC5F1E
:1031A0000446806A5FEA000B71D094F83C00000787
:1031B0006DD014F043FC019000684021457E5846D4
:1031C00018F0DDFE4FF0000818B9A4F81A80A4F832
:1031D0001880584617F0B2FF8246584617F0B5FFE0
:1031E000064694F83C004FF0640900F00F000C28EC
:1031F00002D003284CD09AE0A4F8188056B1B4F954
:103200001A50002714F01AFC00684946407EC0F1AD
:10321000640022E0608BC5F1640110FB01F191FBB9
:10322000F9F06083584617F051FE0546584617F0EE
:1032300093FF02460C200090B4F91A102B46584612
:1032400009F068FA6083024600231EE07A1917B27B
:1032500010FB05F292FBF1F215B2002DF6D1ADF89C
:103260000070A4F81A806A46002120461EF0DDFF97
:1032700041F6FF72BDF900305142584609F0CEFFC9
:10328000BDF800100123084402B200214CE09AE08E
:10329000A4F81A80BAF1000F0AD0B4F91850002728
:1032A00014F0CCFB00684946407EC0F1640022E087
:1032B000208BC5F1640110FB01F191FBF9F0208333
:1032C000584617F07DFE0546584617F0D9FE0346CE
:1032D00003200090B4F918102A46584609F01AFA4B
:1032E0002083014600231EE07A1917B210FB05F275
:1032F00092FBF1F215B2002DF6D1ADF80070A4F8F2
:1033000018800022694620461EF08FFF41F6FF72AA
:10331000BDF900305142584609F0F8FEBDF80010E2
:103320000123084401B20022584619F09FFE208B69
:10333000002848D1608B002845D1C6B9584617F0FF
:103340000BFF0546584617F0C1FD002D06DC00288E
:103350000DDD002D02DA01232A4604E0002806DAFA
:103360000123404202B20021584619F07FFEBAF113
:10337000000F19D1584617F023FE0546584617F09E
:103380007FFE002D07DC00280EDD002D03DA01236F
:103390000022294605E0002806DA012300224042E7
:1033A00001B2584619F062FE0A215846019A12F0FD
:1033B0008BFE6078800706D414F83C0F20F00F00D5
:1033C000207044F8148CBDE8FC9F7FB50E460400C5
:1033D00003D10FF0D5FF040028D094F8280040074F
:1033E00024D4002506B3ADF80050ADF802502046B5
:1033F0000FF0DEFF401EADF80400204610F01EF86E
:10340000401EADF806006A46314602A8FFF700F8F4
:1034100000280BD02068017C890708D5DDE9000170
:10342000C4E90C01012029E0A4F850517FBD826954
:103430000AB102A9904700260AE004EBC601002267
:1034400002A83031FFF70CF80028EFD1761CB6B295
:10345000B4F85001B042F0D880B2202804D204EB76
:10346000C00002A9303004E0A4F8505104F130004B
:1034700069460DF06FFBB4F85001401CA4F85001F0
:1034800060680028D2D01DF0AFF87FBD70B505464A
:1034900000F012F804460CE02146284600F01EF821
:1034A00006462146284600F071F8204615F08CFFAC
:1034B0003446002CF0D170BD002800D04068704721
:1034C00000B503460022FFF7F7FF03E01846521C41
:1034D00000F004F80100F9D1104600BD0068091D94
:1034E00040587047006840587047002800D08068F6
:1034F000704700224260C91C21F003018260016014
:10350000704770B504460068083015F0D3FE05001A
:1035100013D00146002220461EF04AF829462046D4
:1035200062681EF03FF8616819B12A4620461EF015
:103530003FF86560A06800B9A560284670BD70B509
:1035400004460068083015F0B5FE050013D00146AA
:10355000002220461EF026F829462046A2681EF0CA
:1035600027F8A16819B12A4620461EF01BF8A5606D
:10357000606800B96560284670BD28B1416809B926
:10358000806808B1002070470120704770B50400C2
:103590000DD0FFF791FF00228842204608D1FFF7A7
:1035A0009DFF6060011E01D000221EE0A26070BD80
:1035B000FFF79BFF8842206808440AD10168A16098
:1035C00029B12046BDE8704000221DF0EBBF6260CB
:1035D00070BD05682046FFF781FF06460246294672
:1035E00020461DF0DFFF2A4631462046BDE87040E8
:1035F0001DF0DEBF10B50446006882680AB121469E
:10360000904720680068002801D02060F5E710BDD1
:103610008068002801D0B0F91600704777B581B0F6
:103620000E46050017D0632218F058FB040012D094
:10363000206880B128463146642218F04FFB10F014
:10364000FF0208D023682046039998470090BDF8F0
:103650000000ADF80C00039804B070BD2DE9F047F0
:10366000074690B0408C189E40F004007884904645
:103670003A8499468A463289384618F02FFB054627
:10368000A7F8209032895146384618F027FB0446A7
:10369000788CA54220F00400788403D12904B1EB92
:1036A000044F68D0A7F8208032895146384618F078
:1036B00015FB05468046A7F82090514638460AF08B
:1036C00077FF318900682A461BF02CFE308960287C
:1036D00023D147F6FF794D4501D04C451DD13846E1
:1036E00018F001FC00EBD0704510384618F0FBFBD9
:1036F00000EBD0704010C84506D1691C431C9942AC
:1037000000DA00E0194688464C4506D1691C421C87
:10371000914201DA6C1C00E014461948FFF7F1FEF3
:1037200005002BD02F60C5E903843089A880684646
:10373000C5F808A00CF006FD1248FF21CDE90050A5
:10374000114802901148039000200790CDE908012C
:1037500030880A9070889DF83E1040420B90F068C7
:103760000690002060F300018DF83E10306905904E
:1037700068460CF07BFD10B0BDE8F087FEE7000066
:10378000B0050020554B0208114D02086D4C02088F
:1037900014210148FFF7ADBEB00500202DE9F84F18
:1037A00000259046894606462C460427E5E000BFE2
:1037B000F16807EBC400085882017AD480B230EA7D
:1037C000090211D05FF0000230EA08000ED000209C
:1037D00082426ED051F834A06A46102150461BF048
:1037E00087FB002871D103E00122EDE70120EFE71C
:1037F0006A46112150461BF07BFB002865D16A46C2
:10380000122150461BF074FB00285ED16A4613213A
:1038100050461BF06DFB002857D16A4615215046D3
:103820001BF066FB002850D16A46142150461BF05D
:103830005FFBE8BB6A466A2150461BF059FBB8BBE8
:103840006A460C2150461BF053FB88BB6A460D218B
:1038500050461BF04DFB58BB6A46012150461BF0F9
:1038600047FB28BB6A46042150461BF041FBF8B9D0
:103870006A46022150461BF03BFBC8B96A46032149
:1038800050461BF035FB98B96A46052150461BF09F
:103890002FFB68B96A46062150461BF029FB38B950
:1038A0006A46322150461BF023FB08B96A4601E004
:1038B0000BE061E00F2150461BF01AFB28B96A4665
:1038C0000E2150461BF014FB10B10320BDE8F88F09
:1038D0006A460A2150461BF00BFBE8BB6A460B21E7
:1038E00050461BF005FBB8BB6A460F2150461BF043
:1038F000FFFA88BB6A460E2150461BF0F9FA58BB06
:103900006A46372150461BF0F3FA28BB6A46382135
:1039100050461BF0EDFAF8B96A46352150461BF0C7
:10392000E7FAC8B96A46402150461BF0E1FA98B957
:103930006A46452150461BF0DBFA68B96A464121C8
:1039400050461BF0D5FA38B96A46422150461BF062
:10395000CFFA08B96A4600E00AE0432150461BF05E
:10396000C7FA28B96A46492150461BF0C1FA08B186
:10397000022501E005B90125641C708CC0F3C50067
:10398000A0423FF615AF2846A0E700000148406876
:1039900070470000800100207047C0F30410072822
:1039A00000D9072070470000A0F57F41FF390FD0F4
:1039B00070B1702801D2074908E00749703880B219
:1039C000096829B1054A5268904201D2085C7047E3
:1039D000002070473EC20708F402002000030020C8
:1039E00010B518210348FFF784FD03490120087032
:1039F00010BD00005C050020080300202DE9F04107
:103A000090460C46050015D0FCF7FFFC0A4F064611
:103A10002146BA68284690470446BA6828194146A4
:103A200090470146701A03E06218AA5C2A55641C8C
:103A3000A042F9D2BDE8F0811C0300202DE9F0413D
:103A4000094D90460E466A681C460746194690473F
:103A5000306020B120686A68384400219047C8F877
:103A60000000BDE8F08100001C0300202DE9F04FAC
:103A700087B08A46DDE910581F4693460446002168
:103A800005B129805CB12078002809D0BAF1000F77
:103A900005D0002618F0060F15D0002004E0002005
:103AA00007B0BDE8F08F401C215C0A2904D00D2925
:103AB00002D00029F7D100E0401C002DF0D04FF0DB
:103AC000FF312980ECE75FEA887001D541F6FF7786
:103AD000894608468DF81410049127E00498CDF823
:103AE000189068B34FF0000C05AA06ABCDF80CC0D7
:103AF000CDF80080CDE9013220443B465A4651467C
:103B00001CF0D0FE06997A1A314417B20EB288B171
:103B100004990144049120780A280BD00D2809D07B
:103B2000605C0A280FD00D280DD00846205C08B133
:103B3000002FD3DC049848B105B12E800498AFE77C
:103B40004FF0010CD0E7481C0490F3E7064A04A9A3
:103B5000204652689047002DF0D001460022504682
:103B600012F0BFFB06B2E8E71C0300202DE9F0418C
:103B70001746884606001ED0002F1CD0FCF745FCD7
:103B800004463846FCF741FC050014D00B4A2C448F
:103B90004146926830469047411903E0621BB25C8F
:103BA0003255641EA142F9D930442A463946BDE84F
:103BB000F04115F015BDBDE8F08100001C030020A8
:103BC00000230278232902D0012A0DD00FE02AB168
:103BD0000021012A04D0022A04D008E0012101E0DA
:103BE000017004E0017001E0202902D00123184691
:103BF00070470221F6E72DE9F0410E468046024665
:103C00000021334608461DF089F804460027401C71
:103C100015F050FB050008D02F5533464246611C75
:103C20001DF07CF82846BDE8F081FEE72DE9F0475D
:103C30001E4614460D468246DDF8209015E000BF72
:103C40004FEA540808FB0657394650464A46904703
:103C5000002808DD44F30000C0EB540407EB060520
:103C6000A4F1010401E005DA4446002CE8D1204625
:103C7000BDE8F0873846FBE72DE9FC5F9B460CABBF
:103C80008A468146DDE9116093E81210DDE90F579D
:103C90005FEA80784FF030031AD45EB15FEAC078F3
:103CA00008D000F00C0858EA0C0803D0761E01E09A
:103CB0000B55641CBC4204D2202CF9D301E00B55F7
:103CC000641C5FEAC07803D0B44201D2202CF6D342
:103CD0005FEAC06825D55FEA40580AD44CB1BC42BF
:103CE00001D0B44205D1641E03D0102D03D1641E4F
:103CF00004E0102D02D0022D0AD00EE0850603D478
:103D0000202C1ED2782506E0202C1AD2582502E05D
:103D1000202C16D262250D55641C202C11D20B5577
:103D2000641C202C0DD2BCF1000F01D02D2306E025
:103D3000430701D52B2302E0030702D520230B55AF
:103D4000641CCDE900BAC846154681468B46AA4692
:103D5000800714D1274607E02A46DDE900316D1CB3
:103D60002020C446E0477F1CB742F5D307E02A462F
:103D70006D1C641EDDE900311BF80400C047002CF7
:103D8000F5D15FEA897006D409E02A46DDE9003101
:103D90006D1C2020C047A5EB0A00B042F5D3284691
:103DA000BDE8FC9F2DE9F04F8FB099468B46DDE9C9
:103DB0001818DDE91C63DDE91A47924686460022A1
:103DC00009B923F01003580507AD00D5C9B1B1FBFF
:103DD000F4F004FB1010C0B20A2801D2303009E020
:103DE0005FEA836C02D54FF0410C01E04FF0610CAB
:103DF00060440A38B1FBF4F1A854521C09B1202ADE
:103E0000E5D3CDF80880CDE90563CDE90052CDE9D1
:103E100003474B46524659467046FFF72DFF0FB0F9
:103E2000BDE8F08F2DE9FF4F8FB01CACDDE9239585
:103E300094E8030820AC94E8C004002450EA01028E
:103E400001D125F010056A050DF11C0802D550EAD4
:103E5000010217D032463B46FCF73CFAD2B20A2A9E
:103E600001D2303206E0AB0601D5412300E06123E8
:103E70001A440A3A08F80420641C50EA010201D0EE
:103E8000202CE7D3CDE90084CDF808B0CDE9059525
:103E9000CDE9036A0FAF97E80F00FFF7EDFE13B00F
:103EA000BDE8F08F9A4200D288547047704740694D
:103EB00018F03BB889B2406913F0F6BC406909B20A
:103EC00019F095BD70B50C460546022A04D04AB1DA
:103ED000BDE8704016F0B8BA18F051F80028214635
:103EE0002846F5D1BDE8704015F0EEBE2DE9FF4F34
:103EF00089B005460A9800249246002800D1FE4D5C
:103F00008FE1252804D02246641C53460A990BE20F
:103F1000491C4FF0000808460C9101782B2919D054
:103F200004DC202919D0232904D119E02D290ED031
:103F3000302909D00026C8B2FEF74BFAB0B10CA860
:103F4000FEF730FA06461FE048F001010AE048F0AB
:103F5000020107E048F0040104E048F0080101E034
:103F600048F01001401C88460C90D6E70C99087860
:103F70002A2809D1169840C81690002E02DA48F077
:103F800002087642491C0C910C984FF0000B017806
:103F90002E2919D1401C0C9048F480680078FEF757
:103FA00018FA20B10CA8FEF7FDF983460CE00C9A34
:103FB00010782A2808D1169802C81690002900DC2B
:103FC0000021521C8B460C920C9801786C290AD067
:103FD00004DC68290FD06A2919D128E0742929D076
:103FE0007A2914D126E0401C0C90017848F480789E
:103FF0006C291CD00BE0401C0C90017848F0800824
:10400000682904D148F04001401C88460C900246C3
:104010000078692822D015DC62281FD00DDC252805
:1040200071D050281AD058287FF46DAF16E048F4AC
:104030000071E9E748F48071E6E7632878D06428E6
:10404000F2D10BE0732874D004DC6F2806D07028FE
:10405000EAD103E0752801D07828E5D178280DD081
:1040600058280BD070280BD0502809D06F2816D0B4
:10407000622816D00A2128F0100016E0102107E06F
:104080005078102148F48878562804D1521C0C929C
:104090001078582807D01078502804D006E008215E
:1040A00009E0022107E048F02000804610786928E6
:1040B00003D0642801D028F00C085FEA485001D5ED
:1040C00028F00108107869281ED064281CD05628D2
:1040D00064D05FEA885072D5169804ABC01D0022E8
:1040E00083E806080292CDE9076820F007005346EE
:1040F000F0E80212CDE900121690224628460A99ED
:10410000FFF790FE89E00AE15FEA885024D516980F
:1041100004AFC01D20F00703F3E80202169300234A
:1041200087E80A08CDE90768002A03DA012102E0DE
:1041300080E0A6E000210023029119461B1A91415C
:1041400001DA114603E00021404261EB02015346CF
:104150002246CDE90001D1E75FEAC85004D51698A0
:1041600004C80FE0524215E05FEA486003D5169894
:1041700010F8042B06E05FEA0860F0D5169830F8D6
:10418000042B12B21690CDE9021BCDE90468D00FC2
:10419000002AE7DDCDE9002053461EE01698AAEB81
:1041A000040202C816904868006800900A980B68DC
:1041B00001192846FFF79AFE04442FE0FFE75FEA63
:1041C000C8500CD5CDE9021BCDE904681698002132
:1041D000534604C8CDE900211690224619E05FEA53
:1041E000486003D5169810F8042B08E05FEA0860D1
:1041F000169803D530F8042B92B200E004C816904C
:104200000020CDE90020CDE9021BCDE9046853462A
:10421000224628460A99FFF7C5FD04460C98401C23
:104220000C900C99087800287FF46BAE54457DD231
:1042300022467DE001275FEA887006D509E0224624
:10424000641C534620200A99A84738467F1CB04278
:10425000F5D316992246641C11F8040B16915346A7
:104260000A99A8475FEA887006D4D7E72246641CFB
:10427000534620200A99A84738467F1CB042F5D300
:10428000CCE7169850F8049B16904B46BBF1000003
:1042900001D0014601E04FF0FF31484600E0401CEC
:1042A00002780AB1491EFAD2C71A5FEA485003D50C
:1042B00058465F4500D307465FEA887006D512E08E
:1042C0002246641C534620200A99A84738467F1C82
:1042D000B042F5D307E000BF224609F10109641C92
:1042E00053460A99A84799F8000040B15FEA48513F
:1042F000F2D5BBF1010B01E0AD3E0008ECD25FEA64
:10430000887006D48AE72246641C534620200A9906
:10431000A84738467F1CB042F5D37FE706E0224627
:10432000641C534625200A99A84777E7AAF10102A1
:10433000534600200A99A8470DB02046BDE8F08FEB
:1043400010B502004FF000000CD04B1E194200D0F7
:10435000FEE70A44521E9A43B2F5803F02D20C2A6D
:1043600001D9104610BD0C2010BD08444A1E401E45
:104370009043114200D0FEE7704700002DE9F04164
:104380000F4601210025044641862E460BE01B49BD
:10439000FCF7F8F810B16D1CADB202E0608E401C65
:1043A0006086761CB6B257F8260010B10178002955
:1043B000EDD1208EA8421ED0A06A002610B115F0C3
:1043C00003F8A662E06A10B114F0FEFFE662E800AE
:1043D00014F070FFA06238B1680014F06BFFE06267
:1043E00018B1A16A11B102E0FEE7FEE700256900FD
:1043F00015F034F92586BDE8F08100008415010828
:104400002DE9F84F8146407A0F4600F00700022858
:1044100019D010468046974200DD3A4616460320E2
:104420002A4C2B4A00EB460020F00305A0681168D7
:104430001035411A636805EB010C9C4505D24168B3
:1044400021F0004124E00846E4E79D4219D8924655
:104450004FF0FF3B48196168884210D90022694635
:104460001C48CDF800B00BF09DFB002269461A48AD
:104470000BF098FBA168DAF80000091AEAE7A068D7
:10448000DDE7284614F016FFC0B1416841F0004155
:1044900088EA6702416089EA02010160416801F02F
:1044A0004041491C31F0804141608681A0F80E8076
:1044B00005D500F110018160BDE8F88FFEE7A16825
:1044C00001F1100229448260A160F5E78801002013
:1044D000F002002041CF000805FC000870B586B04E
:1044E00000228DF808208DF80C208DF8102090F80F
:1044F0003C20454C02F003031422A5784FF4B47617
:10450000012B23D0022B63D0AB4211D010F8265FD1
:1045100005EB051505EB4505B5FBF2F52570407873
:1045200000EB001000EB4000B0FBF2F06070A370F5
:1045300004AA03A8CDE9000201EB41004FF6FF7188
:1045400001EA400002AB627821781AE0AB4210D059
:10455000858C05EB45056D02B5FBF6F5A58090F859
:10456000270000EB001000EB4000B0FBF2F06070A1
:10457000A37004AA03A8CDE90002C9B202AB627815
:1045800040E008F019FA9DF80C00BDF8003044092D
:104590009DF8081064F30203ADF80030CB08BDF8B5
:1045A00000109DF8102063F3C701D20889B262F3AE
:1045B0000C21ADF800108108BDF8000061F34F3008
:1045C000ADF8000080B20090BDF8000006B070BDEC
:1045D000AB4210D0858C05EB45056D02B5FBF6F5B9
:1045E000A58090F8260000EB001000EB4000B0FB27
:1045F000F2F02070A37004AA03A8CDE90002CAB2A9
:10460000217802ABA088BCE73802002010B5084C26
:10461000012020700748FEF74FFF0028A06803D054
:10462000BDE810401BF0E0BFBDE810401BF0D0BF5C
:10463000D40200208C05002010B5044690F83E00FE
:10464000626B810707D4A18F39B1A1F57F43FF3B8E
:1046500015D0491EA187A18F89B90AB181070ED54E
:1046600021461348FEF792FFFFF7D0FFE16809B13A
:10467000204688472046BDE8104014F0A5BEA16B37
:104680004942E162002A11D0810702D4216B4942DC
:10469000E1624110491C61F3410084F83E00616A07
:1046A000E069E1616062A06AA262606310BD00001F
:1046B0008C05002070B5304D68681BF051FE064631
:1046C000687880F00100687047E00020287094F856
:1046D0003E006978C0F380028A4242D061F38200D2
:1046E00084F83E00E16A8A19030719D4002917DC0F
:1046F000002A15DBC00709D1216939B12046884756
:10470000E1690144E161616A08446062A16809B13C
:104710002046884794F83E0040F0080084F83E00A8
:10472000E06A8019E06216D4A16A884200DDE16285
:10473000A169204688470146206A884204D0216248
:1047400062680AB120689047D4E90A01814202DB1D
:104750002046FFF771FF287818B10848FEF7ACFE35
:1047600003E021460548FEF7B9FE0400ADD11BF079
:10477000FDFD686070BD0000D40200208C050020A3
:1047800070B5044640680D4608B1FFF7F9FF22688E
:10479000002A04D029462046BDE87040104770BD6D
:1047A00089B20CF03CB989B20CF075B910B5018F23
:1047B00090B00446A9B168460BF0C4FC0B48012137
:1047C000CDE90040208F0A9000200790CDE9080134
:1047D000074806900748039068460BF047FD10B065
:1047E00010BD10B0BDE810401DF028B8D118020867
:1047F00037020108D318020810B504464068820841
:104800000AD0496821F00301091D08446060204670
:1048100000F042F8204610BDFEE74068103120F05D
:104820000300884201D301207047002070472DE922
:10483000FC47054648680C4620F0030001AA69467B
:104840001CF058FDDDE9007005EBC71101EB800994
:104850008046D9F83C0060B164B1C4E9020504F1B6
:104860000806C46030460421FFF77FFD864202D06F
:10487000FEE7FEE7FEE7C9F83C400120296900FA9F
:1048800007F21143296105EB870100FA08F04A6934
:1048900002434A61BDE8FC8710B5044600F087F882
:1048A000046010BD2DE9FC4706464FF000000D00E6
:1048B00000900746019042D00C46E9460DF10408ED
:1048C000802907D3084620F01EF9411F01208840A7
:1048D000401E04444246494620461CF00BFD009C05
:1048E0000A2C2CDA06EB8400019A40694FF0FF3164
:1048F00001FA02F210400CD1641C3069A14008405A
:104900001DD020F0F8F80446009006EB80004069C6
:1049100078B120F0F0F8034606EBC411019001EBEA
:104920008000C76B5FB1786820F00300A84201D215
:10493000FEE7FEE739463046009A1DF0B1FA3846E8
:10494000BDE8FC8710B50446FFF7A6FF416841F0BB
:1049500002014160606840F00100606010BD10B568
:10496000044600F024F8416821F0020141606068CB
:1049700020F00100606010BD70B506460D46084687
:1049800000F015F8040010D02079C0070BD068683B
:1049900080080BD02146304600F03CF821462846DE
:1049A000FFF72AFF0546284670BDFEE7FEE742688E
:1049B00000F1080122F00300001F0844910800D113
:1049C000FEE7704770B506460C004FF000001ED0A1
:1049D000F2B120791546C0071BD011462046FFF7DB
:1049E0001CFF78B12946204600F025F805462046F0
:1049F000FFF752FF6868294640F0020068603046C1
:104A0000FFF715FF2046FFF7AAFF04F1080070BD6D
:104A1000FEE7FEE77CB5054648680C4620F003003B
:104A200001AA69461CF066FCDDE900232146284600
:104A30001DF036FA7CBD2DE9F0410D46044600F12B
:104A40000801281F0E18606806F1080720F003000F
:104A5000401BA0F1040838460421FFF786FC87427A
:104A600000D0FEE7606820F0030108EB0500001DA0
:104A7000814200D0FEE7307900F0030040EA0800F0
:104A8000706020F003000C2800D2FEE7207900F0CF
:104A90000300284360603046FFF754FF3046BDE80E
:104AA000F08138B5044612F0C9FF054612F0FBFF4D
:104AB0000028204605D0218FE18617F046FD012011
:104AC00038BD11F0C9F8002820461ED010F099FF1B
:104AD000218FE08E81420CD02087E08E00906A46C4
:104AE0001C21204611F0F0FA0128E9D1204617F0E8
:104AF0002CFD284612F0E3FF0428E0D1204616F0F2
:104B000093F9002111F0A7FFD9E711F001F9D6E7D9
:104B100070B511F0D5FA054616F0CCF904462846D2
:104B20000CF0DAFD01462046BDE8704001221AF083
:104B3000A9BF00002DE9F04F0D4687B004460021C3
:104B400016F0A7F860B32946204600F061FA29461E
:104B5000204600F06FF80021204616F0ABFF0590CC
:104B60000021204617F05AF804900021204616F044
:104B70008AFE012800D0002080460021204617F040
:104B800094F907460021204616F0F8FE42F2D1794A
:104B900006464F450BD1608C400508D4012707E03D
:104BA00007B02846BDE8F04F1C2114F057BD002780
:104BB000204616F0ECF8DFF878A083462046002166
:104BC000BAF8022017F08AF8D5F810C0AB68296847
:104BD000CDF800C0CDF80C80CDE90131C2B2394624
:104BE0005846059B09F056FD28834E4504D1608C3C
:104BF000800501D4012600E00026204616F0ADF81D
:104C0000074620460021BAF8062017F067F8C2B21E
:104C1000686900246B68E9688DE81B0031463846F6
:104C2000049B09F037FD688307B0BDE8F08F0000F2
:104C3000AC0100202DE9F34F81B00C46019808F03B
:104C400091FF0646019816F0A2F88246304600F021
:104C50002BFF2061400014F059FB206020694000C8
:104C600014F054FB002541F69A79A0603AE036F939
:104C70001510DFF82081494533D10027DFF818B13E
:104C80001FE03946019816F004F85946009017F0D5
:104C90007DF9A8B9009808F077FF012810D1009895
:104CA00008F068FFA8420BD1009817F01CF94146A4
:104CB000404501DA084602E0009817F014F98046F2
:104CC0007F1C019815F0F7FFB842DAD8B8F1000F51
:104CD00003DBA16821F8158003E0A168002021F81A
:104CE00015006D1C2069A842C1D800252F46284612
:104CF00041F69B784B4615E036F91010414504DB30
:104D00000D44A5F5F8559B3D0BE0994204D1A168EF
:104D100031F81010394403E0A26822F81010394429
:104D20000FB2401C21698142E6D80021019816F09B
:104D3000C1FE2169C1F1010200FB02A0C01B00B24B
:104D4000002800DA002000224FF0FF331146C4464D
:104D500011E000BF36F9117067450BDBA7F5F85776
:104D60009B3F3AB210FB02F3B3FBF5F3A76827F8B9
:104D700011300B46491C27698F42EBD8002B07DB0B
:104D8000A91A4143B1FBF5F1401AA16821F81300BB
:104D9000BDE8FE8F01E0FFFF010006002DE9F14FA5
:104DA00000221146009818F09FFA0021009816F092
:104DB000A3FD04460021009816F042FF20440FFA9C
:104DC00080F90021009816F02DFE20440FFA80F89B
:104DD000009816F005FD00EB090101EB0800DFF873
:104DE00098A006B25446009815F065FF07460025C6
:104DF0002AE0009821498068006850F82500834621
:104E000017F0C4F8F8B9584617F000FC40BB002171
:104E1000584616F009FD18B3012821D002281FD0EA
:104E200003281DD00021584617F057F858B9BBF891
:104E30001A10BBF81600081A401C00B24844A042E1
:104E400000DB044624B26D1CBD42D2D3544504D0CD
:104E500004EB080000B2B04200DC3046BDE8F88F39
:104E60000098BBF91A10B0F91600081A411CA142AB
:104E7000E8DB0C46E6E7000001E0FFFF010004006C
:104E80002DE9F84F00228046114618F017FA00214C
:104E9000404616F031FD04460021404616F076FEED
:104EA00020440FFA80FA0021404616F021FE2044EB
:104EB0000FFA80F9404616F0A1FC00EB090101EB66
:104EC0000A00DFF844B105B25C46404615F0F3FE37
:104ED00007460021404616F0C4FC01284FF00006AA
:104EE00044D078E0D8F808004849006850F8260017
:104EF000009017F04BF8C0BB009817F087FB50B13B
:104F00000098B8F91810B0F91400091A481CA0420A
:104F10002ADB4C1C28E00021009816F085FC58B1D3
:104F2000032809D0062807D0082805D000210098BA
:104F300016F0CDFF58B118E00098B8F91810B0F984
:104F40001400081A411CA1420EDB0C460CE000982C
:104F5000143000900BF06FFE5044A04204DB009828
:104F60000BF069FE00EB0A0424B2761CBE42B9D3F2
:104F70005C453BD004EB090033E000BFD8F80800E3
:104F80002249006850F82600009016F0FFFF08BB89
:104F9000009817F03BFB60BB0021009816F044FC22
:104FA00038B3012825D0042823D0072821D0002198
:104FB000009816F092FF68B90098143000900BF03A
:104FC0003AFE4844A04204DB00980BF034FE00EBAC
:104FD000090424B2761CBE42D0D35C4506D004EB53
:104FE0000A0000B2584501D0A84200DC2846BDE8BE
:104FF000F88F0098B0F91810B8F91400091A481C75
:10500000A042E6DB4C1CE4E701E0FFFF01000400E6
:105010002DE9F84F0C46834609F0C2F9064600F028
:1050200043FD6061400014F071F960606069400008
:1050300014F06CF9002541F69A79E0603AE036F90F
:105040001500DFF80C81484533D10027DFF804A1B3
:105050001FE03946584615F01CFE5146009016F0E8
:1050600095FFA8B9009809F027FA012810D10098F7
:1050700009F018FAA8420BD1009815F0DAFE414663
:10508000404501DA084602E0009815F0D2FE80465D
:105090007F1C584615F00FFEB842DAD8B8F1000F61
:1050A00003DBE16821F8158003E0E168002021F8C6
:1050B00015006D1C6069A842C1D800273D463846DE
:1050C00041F69B784A4615E036F91010414504DB5D
:1050D0000F44A7F5F8579B3F0BE0914204D1E168DC
:1050E00031F81010294403E0E36823F81010294434
:1050F0000DB2401C61698142E6D80021584616F085
:105100008DFD8146584615F028FE01466069C0F1C4
:10511000010209FB0210401B02B2002A00DA002241
:10512000002043460FE000BF36F91010994209DB1A
:10513000A1F5F8519B3912FB01F1B1FBF7F1E568DC
:1051400025F81010401C61698142EDD8BDE8F88F48
:1051500001E0FFFF010006001CB50B880489234411
:10516000ADF800304B8844892344ADF802308B8879
:1051700004892344ADF80430C98843891944ADF843
:1051800006104369694698471CBD0000F8B50D46F6
:10519000016B0446B9B109780029616B0CD039B1B3
:1051A0001AF031FF0C4909688847616B884211D2B7
:1051B00000200A4E009008E029B1F1E73268694604
:1051C0009047A84201D10120F8BD206B0099415CB5
:1051D0000029F3D10020F8BD340300202003002073
:1051E0002DE9FF4F87B0C878189CC0070D460028EE
:1051F00001D0F04800E0F048069001D0EF4800E010
:10520000EF48049001D1ED4800E0ED484FF0100A5E
:105210004FF00C0ECDF814006088A1884FF0000B01
:10522000A0EB010001B25A465846276912E000BFC0
:1052300000EB8006E3680AEB860C13F80CC05FEA0B
:10524000CC7C0BD04FF0080C0CEB86069B5BC91A8C
:1052500009B2401C8742EBD8002347E00EEB8606DC
:105260009B5B1A4412B2F4E703EB8306E7680AEB90
:1052700086000190385CC00737D191FBF2F00EEB4D
:10528000860CCDF800C037F80CC00CFB00FC0FFA00
:105290008CF94FF0060C04200CEB860C00EB86001A
:1052A00037F90C80385ECC46C84500DCC446604502
:1052B00004DC4046CC46C84500DD6046484506D083
:1052C000DDF804804FF0010CE34647F808C0D4F83D
:1052D0000CC0082707EB86062CF80600E768009E3E
:1052E000BE5B921B081A12B201B25B1C2069984285
:1052F000BAD8BBF1000F8FD10021079816F0BDFA84
:10530000012826D000270020ADF80800ADF80C00D9
:1053100003A902A8CDE900012089B4F9022003B253
:10532000287816991CF0D6F9E878384207D0079803
:1053300015F02DFDBDF808100844ADF808000999D6
:10534000079815F0A6FC06464FF4FA684FF0640B78
:1053500025E10127D7E79B49304616F017FE0028C4
:105360007DD10021304616F0F3FAE8B34FF0000982
:105370004846216911E000BFE26800EB800352F863
:105380002320B24208D100EB8002E168082000EB44
:10539000820031F9009002E0401C8142ECD8E878AC
:1053A000C007708C02D040F4806001E040F40070CF
:1053B000708406F11400049982468847484528D035
:1053C000304617F0C2F8B08AADF80000F08AADF8A8
:1053D0000200308BADF80400708BADF80600069A21
:1053E00049465046904700E00FE06A462921304682
:1053F00010F06AFE304615F05DFD3246222110F0B5
:1054000063FE304617F0A1F803E0708C20F4C06012
:105410007084002000906878012810D0022816D1EE
:10542000059906F114008847B4F90010491C21F0D1
:105430000101081A00EBD07040F34F0006E0059917
:1054400006F1140088472188081A00B20090E87815
:1054500038420AD0049906F11400884700E096E02B
:10546000BDF80810081AADF80800304600210C22DB
:1054700016F034FC0FFA80F9304600210D2216F0A8
:105480002DFC0FFA80FA304616F02DFD01903046C3
:1054900015F0CFFC0146C9F3413001280ED129F4A3
:1054A000C04040450ADCB0F57A7F01DDC0F57A7076
:1054B000019A504390FBFBF00FFA80F9CAF3413098
:1054C00001280DD12AF4C040404509DCB0F57A7FAF
:1054D00001DDC0F57A70484390FBFBF00FFA80FACB
:1054E000B18A1498F28A411A01EB0900159900B2A9
:1054F0008A1A02EB0A01EA7809B2D207002A02D01E
:10550000BDF9082000E0009A10440FFA80FA01D09B
:10551000009801E0BDF9080008440FFA80F95AEA42
:1055200009001BD0304617F010F8B18A01EB0A00D1
:10553000B082318B01EB0A003083F18A01EB090064
:10554000F082718B01EB09007083304616F0FDFF8D
:1055500001234A465146304617F0A6F8E87838420B
:105560000CD1049906F11400884717990844BDF836
:105570000C100844BDF80810084406E0BDF80C10F3
:1055800017980844BDF80810081AADF80800E87824
:1055900009AAC0F38001079808F0CEFD0646002E48
:1055A00004D0DDE9090188427FF4D5AE0BB0BDE837
:1055B000F08F0000BF0C0108B50C01085B0C01085E
:1055C000030C0108010006002DE9F04F91B00E0018
:1055D00005463FD02E83286808B113F0F5FE06EB90
:1055E0004600062101EB400013F064FE286040B342
:1055F000022101EB46010144E960042101EB86012F
:105600000144C5E9010101210024012E1AD0F00056
:10561000083013F07BFE814600EB860000F10408A1
:10562000B00000B2A346ADF81000C0F10102801036
:10563000ADF812B00FFA82FA5C46CDF828B00690A9
:10564000ABE0FEE7B4220270E8680480E8684180BD
:10565000A868048011B0BDE8F08F0027BDF81220C3
:10566000BAF1000F07DC032101EB42010AEB010054
:105670000FFA80FA0CE0BDF810100523521A03EB64
:10568000420202EB0A00491E0FFA80FAADF8101030
:10569000BDF81200401CADF8120004A800F0E9F8B3
:1056A00068B1BDF9100006A9821041F827200AA9A7
:1056B00000F0030041F827007F1C042FCEDB042FED
:1056C00071D109990698884212D129F8140028F856
:1056D00014B0DDE90A010144DDE90C20104408445E
:1056E00069680855696800010855641C24B252E0D5
:1056F0000799884219D029F8140028F814B06A686C
:105700000A9810556A6800011055641C069A20B268
:10571000521E29F8102028F810B0DDE90B120A44B7
:105720000D99091D11446A682FE0089929F81400A1
:10573000884228F814B0DDE90A025946104412D014
:105740006A6810556A6800011055641C069A20B2F8
:10575000521E29F8102028F81010DDE90C1211440F
:1057600008316A6811E00C9A10446A6810556A683A
:1057700000011055641C069A20B2521E29F8102010
:1057800028F810100D996A680C3111546A680901E3
:105790001154401C04B20BF1010B04A800F069F88D
:1057A00000287FF45AAF40F2D32016FB00F109EB3A
:1057B0004402881232F9022C824205D108EB4402DD
:1057C00032F9022C82421AD0A1EB8021B1F5007F80
:1057D00003DC494341F3CF3106E0C1F58061494321
:1057E00041F3CF31C1F10F0129F8140028F814005A
:1057F00068680155686809010155641C24B2A01E3F
:105800000EE000BF38F8102029F8142039F81020D5
:1058100028F8142069680A5C0A55641C24B2401EEA
:105820000028EFDAEA680021084611801BE0EA68E8
:1058300022F81100AB6839F8102023F811200AE093
:10584000AE6839F9102036F81130934200DA1A4662
:1058500026F81120401C38F910208A4201D1A042BC
:10586000EEDB491C09B2A042E1DB484613F09AFD89
:10587000F0E6B0F90210B0F90000814201DC01202D
:1058800070470020704717B581B0022A03D8BDF8D1
:10589000080004B010BDBDF80830BDF80400C3F323
:1058A000C401C0F3C40421441F2900D31F2161F3A4
:1058B000C7005907890E01EB533100F0070401EBD3
:1058C000C40101EB5031ADF804003F2900D33F2162
:1058D000CC0864F3020061F34F30C3F30421C0F33A
:1058E00004231944ADF804001F2900D31F2161F3DC
:1058F0000C20ADF80400FF2A07D0DDE901010CF00F
:10590000B3FF0090BDF80000C3E780B2C1E717B550
:1059100081B0022A03D8BDF8080004B010BDBDF85C
:105920000400BDF80810C0F3C403C1F3C40413FBA2
:1059300004F35B0963F3C700C0F30423C1F3042439
:1059400013FB04F35B0963F30C2043079B0E4C0726
:10595000A40E03EB503304EB513113FB01F35B0A4C
:1059600063F3020043079B0E03EB503313FB01F17B
:10597000890961F34F30ADF80400FF2A07D0DDE953
:1059800001010CF071FF0090BDF80000C5E780B286
:10599000C3E717B581B0022A03D8BDF8080004B0E8
:1059A00010BDBDF80830BDF80400C3F3C401C0F356
:1059B000C404091B002900DC002161F3C70059075A
:1059C000890E01EB533100F0070401EBC40101EB38
:1059D0005031ADF80400002900DC0021CC0864F34C
:1059E000020061F34F30C3F30421C0F30423C91A4A
:1059F000ADF80400002900DC002161F30C20ADF8B3
:105A00000400FF2A07D0DDE901010CF02DFF009012
:105A1000BDF80000C3E780B2C1E70000F8B5044656
:105A200010F04EFB0646204610F00CFB05463046B3
:105A300015F040FA04462B2D2AD00A2D27D16946AD
:105A4000304615F09DFA304615F0A1F905460021C3
:105A5000204615F01EFF0128BDF9000005EBD571A9
:105A60001CD000EB610000BF90FBF5F001B20029F3
:105A700000DA0021608D4FF001028842204610D0EC
:105A80001AF000F800221C21204610F01DFBF8BD82
:105A9000618DBDE8F840002219F0F4BFC0EB610051
:105AA000E2E719F0EFFFF8BD0146002041F6FF7272
:105AB00000E0401C31F910309342FAD170471CB518
:105AC000044690F8500000F0010088422DD094F870
:105AD000500011B140F0010001E020F0010084F815
